:100000000C9446000C9465000C9465000C946500FB
:100010000C9465000C9465000C9465000C946500CC
:100020000C9465000C9465000C9465000C946500BC
:100030000C9465000C94B4000C9465000C9465005D
:100040000C9465000C9465000C9465000C9465009C
:100050000C9465000C9465000C9465000C9465008C
:100060000C9465000C9465000C9465000C9465007C
:100070000C9465000C9465000C9465000C9465006C
:100080000C9465000C9465000C94650011241FBE4F
:10009000CFEFD0E4DEBFCDBF11E0A0E0B1E0E6E5F8
:1000A000F5E000E00BBF02C007900D92A231B1074E
:1000B000D9F721E0A2E1B1E001C01D92A732B20759
:1000C000E1F70E946F020C94A9020C940000CF93F8
:1000D000C82F8A3019F48DE00E9467008091C0001B
:1000E00085FFFCCFC093C60080E090E0CF910895DB
:1000F00060930001709301018093020190930301CA
:100100006093120170931301809314019093150171
:1001100008958BE0809381008DE790E090938900B3
:100120008093880082E080936F0010928500109287
:1001300084008091000190910101A0910201B09191
:1001400003018093120190931301A0931401B093C3
:1001500015018FB780688FBF0895109281000895B0
:1001600081E08093160108951F920F920FB60F92AF
:1001700011240BB60F922F933F934F935F936F937E
:100180007F938F939F93AF93BF93EF93FF93809150
:10019000120190911301A0911401B09115010197E2
:1001A000A109B1098093120190931301A093140146
:1001B000B0931501892B8A2B8B2B91F40E94B000F0
:1001C0008091000190910101A0910201B091030181
:1001D0008093120190931301A0931401B093150121
:1001E000FF91EF91BF91AF919F918F917F916F910F
:1001F0005F914F913F912F910F900BBE0F900FBECB
:100200000F901F90189580911F01909120018130CF
:10021000910561F020F08230910589F01EC081E0E7
:1002200090E09093200180931F011BC082E090E03A
:100230009093200180931F011092180112C0209109
:1002400018012A3010F081E090E090932001809313
:100250001F012F5F2093180104C0109220011092FB
:100260001F0180911F01909120018130910519F0AB
:10027000029729F0089581E080931C01089510925F
:100280001C010895809123019091240181309105F2
:1002900059F018F0029701F127C081E090E09093A7
:1002A00024018093230124C080B190E08095909533
:1002B000887F9927892B49F082E090E09093240170
:1002C000809323011092180113C081E090E0909375
:1002D0002401809323010CC080B190E0809590951B
:1002E000887F9927892B01F4109224011092230111
:1002F00080912301909124018130910539F018F00B
:10030000029739F0089510921801089510921B0178
:10031000089582E080931B0180B190E080959095D4
:10032000887F9927892B21F4809118018F5F01C064
:1003300080E0809318010895809125019091260115
:10034000892B39F481E090E0909326018093250178
:1003500004C01092260110922501809125019091F0
:100360002601009719F0019721F0089510921D01C0
:10037000089580911B018823C9F080B190E0809599
:100380009095887F992795958795959587959595CB
:10039000879520911D01422F50E0481759071CF402
:1003A00020B12095287F20931D01089510921D01F2
:1003B000089580912101909122018130910559F099
:1003C00018F00297F9F02DC081E090E0909322019F
:1003D000809321012AC080911B01882361F082E073
:1003E00090E0909322018093210180B180958770E5
:1003F000809317011AC081E090E0909322018093CE
:10040000210113C080911B01882359F082E090E004
:10041000909322018093210180B180958770809311
:1004200017011092220110922101809121019091D7
:1004300022018130910519F0029721F00895109260
:100440001E01089580B190E080959095209117014C
:1004500030E08227932783709927892B79F480B124
:1004600090E0809590952827392722FF04C084E0EA
:1004700080931E01089510921E01089510921E018E
:1004800008958091190190911A01009719F0019730
:1004900041F00EC081E090E090931A018093190121
:1004A0000BC081E090E090931A018093190104C081
:1004B00010921A01109219018091190190911A015C
:1004C000019761F490911C0180911B01892B9091FF
:1004D0001E01892B90911D01892B85B9089511B8B2
:1004E0008FEF82B984B915B810921C0110921B01CC
:1004F00010921E0110921D0164E670E080E090E011
:100500000E9478000E9489001092200110921F0121
:1005100010922401109223011092260110922501BD
:10052000109222011092210110921A0110921901C9
:100530000E9403010E9442010E949C010E94D90175
:100540000E944102809116018823E1F31092160166
:06055000EFCFF894FFCF8D
:10055600010000000000000200000000670000002B
:02056600000093
:00000001FF
